:100000000C945D000C9485000C9485000C94850084
:100010000C9485000C9485000C9485000C9485004C
:100020000C9485000C9485000C9485000C9485003C
:100030000C9485000C9485000C9485000C9485002C
:100040000C9411030C9485000C9481030C945B03B5
:100050000C9485000C9485000C9485000C9485000C
:100060000C9485000C9485000000000024002700FB
:100070002A0000000000250028002B0004040404CE
:100080000404040402020202020203030303030342
:10009000010204081020408001020408102001021F
:1000A00004081020000000080002010000030407FB
:1000B0000000000000000000B30311241FBECFEFBA
:1000C000D8E0DEBFCDBF11E0A0E0B1E0E0ECFBE0A6
:1000D00002C005900D92AA39B107D9F723E0AAE929
:1000E000B1E001C01D92A335B207E1F710E0CDE504
:1000F000D0E004C02197FE010E94D305CC35D10782
:10010000C9F70E94A8040C94DE050C94000090E04E
:10011000FC01EC55FF4F3491FC01E057FF4F249157
:10012000FC01E458FF4FE491EE2309F43BC0332374
:1001300039F1333091F038F43130A9F0323001F533
:1001400084B58F7D12C0373091F03830A1F0343053
:10015000B9F4809180008F7D03C0809180008F77FB
:10016000809380000DC084B58F7784BD09C08091D5
:10017000B0008F7703C08091B0008F7D8093B00076
:10018000F0E0EE0FFF1FEE58FF4FA591B4918FB72F
:10019000F894EC91611103C020952E2301C02E2B01
:1001A0002C938FBF08952FB7F89460919F017091A1
:1001B000A0018091A1019091A2012FBF0895CF923B
:1001C000DF92EF92FF920F931F93CF93DF936C0117
:1001D0007A018B01C0E0D0E0CE15DF0589F0D801AF
:1001E0006D918D01D601ED91FC910190F081E02D92
:1001F000C6010995892B11F47E0102C02196ECCF2E
:10020000C701DF91CF911F910F91FF90EF90DF9089
:10021000CF900895089580E090E00895FC01538DFB
:10022000448D252F30E0842F90E0821B930B5417D0
:1002300010F0CF96089501970895FC01918D828D5D
:10024000981761F0828DDF01A80FB11D5D968C912A
:10025000928D9F5F9F73928F90E008958FEF9FEF35
:100260000895FC01918D828D981731F0828DE80FF1
:10027000F11D858D90E008958FEF9FEF0895FC01AB
:10028000918D228D892F90E0805C9F4F821B910978
:100290008F739927089583EA91E00E943F0121E03E
:1002A000892B09F420E0822F0895FC01848DDF0161
:1002B000A80FB11DA35ABF4F2C91848D90E00196D9
:1002C0008F739927848FA689B7892C93A089B189C8
:1002D0008C9180648C93938D848D981306C00288D2
:1002E000F389E02D80818F7D80830895EF92FF92C6
:1002F0000F931F93CF93DF93EC0181E0888F9B8D49
:100300008C8D981305C0E889F989808185FD24C00A
:10031000F62E0B8D10E00F5F1F4F0F731127E02E8D
:100320008C8DE8120CC00FB607FCFACFE889F9896A
:10033000808185FFF5CFCE010E945501F1CF8B8DD5
:10034000FE01E80FF11DE35AFF4FF0820B8FEA899F
:10035000FB898081806207C0EE89FF896083E8891C
:10036000F98980818064808381E090E0DF91CF9182
:100370001F910F91FF90EF900895CF93DF93EC01C1
:10038000888D8823C9F0EA89FB89808185FD05C0B5
:10039000A889B9898C9186FD0FC00FB607FCF5CFEF
:1003A000808185FFF2CFA889B9898C9185FFEDCF37
:1003B000CE010E945501E7CFDF91CF91089580E0F3
:1003C00090E0892B29F00E944B0181110C940000D0
:1003D0000895CF93DF93EC017F836E830E94D30057
:1003E000688779878A879B878E819F81009721F014
:1003F000019741F46A8101C069818881DF91CF91C1
:100400000C948700DF91CF910895FF920F931F9373
:10041000CF93DF938C01F12CEB01CC0FDD1FF801A2
:100420008481F816D0F42F2D30E0FE01E20FF31F87
:10043000EE0FFF1FE00FF11F65817681220F331F42
:10044000D8011296ED91FC911397E20FF31F808172
:1004500091810E94E901F394E2CFDF91CF911F9146
:100460000F91FF900895FF920F931F93CF93DF9307
:100470008C01F12CEB01CC0FDD1FC60FD71FF8014B
:100480008481F816D0F42F2D30E0FE01E20FF31F27
:10049000EE0FFF1FE00FF11F65817681220F331FE2
:1004A000D8011296ED91FC911397E20FF31F808112
:1004B00091810E94E901F394E2CFDF91CF911F91E6
:1004C0000F91FF9008950F931F93CF93DF93FC013B
:1004D000268137812230310549F5EC010E94D30095
:1004E000088519852A853B85AB01BC01401B510B52
:1004F000620B730B8B819C81A0E0B0E084179507A1
:10050000A607B70798F48D81882311F0698101C08F
:100510006A8188810E9487009D8181E089278D837F
:100520000E94D300688779878A879B87DF91CF9164
:100530001F910F9108950F931F93CF938C01C0E0EB
:10054000F8018481C81778F4F80192818381E92F3A
:10055000F82FEC0FF11DEC0FF11D808191810E94AD
:100560006302CF5FEDCFCF911F910F9108950F934D
:100570001F93CF938C01C0E0F8018481C81778F4F1
:10058000F80192818381E92FF82FEC0FF11DEC0F18
:10059000F11D808191810E946302CF5FEDCFCF91E9
:1005A0001F910F9108950F931F93CF93DF93EC0149
:1005B0001D82688349832A831C830B8370E0FB01BF
:1005C000E057FF4F8491FB01E458FF4F2491222311
:1005D00099F030E0220F331FF901E859FF4FA59140
:1005E000B491F901EE58FF4F259134919FB7F894DB
:1005F000EC91E82BEC939FBF81E090E09F838E838A
:100600006A8188810E9487000E94D3006887798769
:100610008A879B87DF91CF911F910F9108950E9448
:10062000D9051F920F920FB60F9211242F933F936B
:100630008F939F93AF93BF9380919F019091A0015F
:10064000A091A101B091A20130919E0123E0230F5E
:100650002D3720F40196A11DB11D05C026E8230FFA
:100660000296A11DB11D20939E0180939F0190933E
:10067000A001A093A101B093A20180919A01909151
:100680009B01A0919C01B0919D010196A11DB11DFE
:1006900080939A0190939B01A0939C01B0939D013C
:1006A000BF91AF919F918F913F912F910F900FBE6E
:1006B0000F901F9018951F920F920FB60F92112452
:1006C0002F933F934F935F936F937F938F939F935A
:1006D000AF93BF93EF93FF9383EA91E00E9455019C
:1006E000FF91EF91BF91AF919F918F917F916F910A
:1006F0005F914F913F912F910F900FBE0F901F90E0
:1007000018951F920F920FB60F9211242F938F936B
:100710009F93EF93FF93E091B301F091B401808137
:10072000E091B901F091BA0182FD12C090818091EF
:10073000BC018F5F8F732091BD01821751F0E09152
:10074000BC01F0E0ED55FE4F958F8093BC0101C0D8
:100750008081FF91EF919F918F912F910F900FBE0C
:100760000F901F9018950F931F93CF93DF93E3EA99
:10077000F1E01382128288EE93E0A0E0B0E084837F
:100780009583A683B7838CE791E09183808385EC82
:1007900090E09587848784EC90E09787868780EC4B
:1007A00090E0918B808B81EC90E0938B828B82EC3C
:1007B00090E0958B848B86EC90E0978B868B118EE6
:1007C000128E138E148E08EC10E020E041E06DE0F4
:1007D00087E493E00E94D30204EF11E020E041E0BF
:1007E0006AE08BE393E00E94D30220E041E069E0FD
:1007F0008FE293E00E94D30221E040E065E083E2D3
:1008000093E00E94D30221E040E064E087E193E0BE
:100810000E94D30220E041E066E08BE093E00E947A
:10082000D30220E041E067E08FEF92E00E94D30224
:1008300020E041E068E083EF92E00E94D30221E0F3
:1008400040E061E087EE92E00E94D30221E040E0C8
:1008500062E08BED92E00E94D30221E040E063E091
:100860008FEC92E00E94D302C6EAD2E026E931E0A2
:100870003983288384E2E4E4F1E0ABEAB2E001905A
:100880000D928A95E1F78EE391E09B838A8383E062
:100890008C83CDE7D2E03983288394E2E4E4F1E06D
:1008A000A2E8B2E001900D929A95E1F728E331E0D9
:1008B0003B832A838C83C8E6D2E02EE831E039837B
:1008C000288380E1E8E6F1E0ADE6B2E001900D9228
:1008D0008A95E1F784E391E09B838A8382E08C83AD
:1008E000C3E5D2E03983288390E1E8E6F1E0A8E5AA
:1008F000B2E001900D929A95E1F720E331E03B835D
:100900002A838C83EEE4F2E028E031E03183208317
:1009100094E0928398E093831482C0E4D2E020E0D4
:1009200031E0398328838A83FC83EB831D820E9414
:10093000D3006A877B878C879D870E94D3006E8354
:100940007F8388879987DF91CF911F910F910895B9
:10095000789484B5826084BD84B5816084BD85B59A
:10096000826085BD85B5816085BD80916E008160A6
:1009700080936E001092810080918100826080934C
:10098000810080918100816080938100809180004E
:100990008160809380008091B10084608093B10079
:1009A0008091B00081608093B00080917A00846073
:1009B00080937A0080917A00826080937A0080919F
:1009C0007A00816080937A0080917A0080688093B9
:1009D0007A001092C100E091B301F091B40182E07D
:1009E0008083E091AF01F091B0011082E091B101FC
:1009F000F091B20180E180831092BB01E091B701D8
:100A0000F091B80186E08083E091B501F091B601E4
:100A1000808180618083E091B501F091B601808191
:100A200088608083E091B501F091B6018081806893
:100A30008083E091B501F091B60180818F7D808344
:100A400062E070E087E493E00E94E90163E070E017
:100A500086EA92E00E94330263E070E08DE792E064
:100A60000E94330260E070E088E692E00E94050296
:100A700060E070E083E592E00E940502C8EED3E0FA
:100A800087E493E00E94630210E08091420218170D
:100A9000A8F49091400280914102E92FF82FE10FD4
:100AA000F11DE10FF11D80819181DC01ED91FC913F
:100AB0000190F081E02D09951F5FE7CFE09143029F
:100AC000F09144029481828140914A0250914B02FC
:100AD00060914C0270914D020091460210914702C4
:100AE0002091480230914902401B510B620B730B5D
:100AF0000190F081E02D989FE00DF11D1124E80F89
:100B0000F11D20812C9FC0012D9F900D1124092ED5
:100B1000000CAA0BBB0B481759076A077B0708F4A0
:100B20003FC010E080914202E0914302F091440204
:100B3000181728F58081918134812281FC01329F30
:100B4000E00DF11D11246081812F90E0211718F034
:100B5000E80FF91F6081880F991FE0914002F09122
:100B60004102E80FF91F80819181DC01ED91FC9138
:100B700070E00280F381E02D09951F5FD3CF84815F
:100B80008F5F84839381891708F014820E94D300B9
:100B90006093460270934702809348029093490203
:100BA0000E94DF016DCFEE0FFF1F0590F491E02D45
:100BB000099481E090E0F8940C94DE05F894FFCF5E
:100BC000A60268027D025302000202000501020231
:100BD00001050402020205020005020502000002EE
:100BE00005020101020502020502050502020205D5
:100BF000230317033B032F03CF02DB02E702F302B9
:100C0000FF020B03000001000100020001000100CF
:100C100001000100000001000200010001000000CD
:100C200001000100000000000000010002000100BE
:100C30000100000001000100000000007601DF005B
:100C40000E01BD013F011D013101000000009B02AA
:0A0C5000050200000000B7023302A5
:00000001FF
